:0400000045EF00F0D8
:100008002A82FACF02F0FBCF03F0F2A80EEF00F03D
:1000180010EF00F01BEF00F0F2A215EF00F017EF61
:1000280000F01BEF00F094EC0DF03FEF00F0F0A6AD
:1000380020EF00F022EF00F02DEF00F0F0A027EF06
:1000480000F029EF00F02DEF00F090EC0DF03FEFFD
:1000580000F0F0A832EF00F034EF00F03FEF00F0CE
:10006800F0A239EF00F03BEF00F03FEF00F08CEC2E
:100078000DF03FEF00F003C0FBFF02C0FAFF2A9229
:060088001100EBEF0CF08B
:10100000003132334134353642373839432A3023C0
:10101000440040145453697374656D612044455312
:1010200041524D41444F00496E74726F64757A634A
:10103000612050494E3A00212120494E54525553C7
:10104000494F4E2021210053697374656D61204121
:10105000524D41444F0050494E20496E636F7272A9
:101060006563746F0050726573696F6E652041002F
:101070003132333400008C808C828C848C868C904E
:10108000060EE82EFED700D083B849EF08F04BEFEC
:1010900008F056EF08F08C80010EF66E100EF76E19
:1010A000000EF86E0800F55069EF09F083BA5BEFA7
:1010B00008F05DEF08F067EF08F08C80020EF66E26
:1010C000100EF76EF86A0800F55069EF09F083BC5E
:1010D0006CEF08F06EEF08F078EF08F08C80030EEC
:1010E000F66E100EF76EF86A0800F55069EF09F019
:1010F00083BE7DEF08F07FEF08F089EF08F08C8069
:10110000040EF66E100EF76EF86A0800F55069EFDF
:1011100009F08C808C92060EE82EFED700D083B8A2
:1011200094EF08F096EF08F0A0EF08F08C82050E1F
:10113000F66E100EF76EF86A0800F55069EF09F0C8
:1011400083BAA5EF08F0A7EF08F0B1EF08F08C82A2
:10115000060EF66E100EF76EF86A0800F55069EF8D
:1011600009F083BCB6EF08F0B8EF08F0C2EF08F062
:101170008C82070EF66E100EF76EF86A0800F550B6
:1011800069EF09F083BEC7EF08F0C9EF08F0D3EFAD
:1011900008F08C82080EF66E100EF76EF86A0800E2
:1011A000F55069EF09F08C828C94060EE82EFED77C
:1011B00000D083B8DEEF08F0E0EF08F0EAEF08F0C7
:1011C0008C84090EF66E100EF76EF86A0800F55062
:1011D00069EF09F083BAEFEF08F0F1EF08F0FBEFE9
:1011E00008F08C840A0EF66E100EF76EF86A08008E
:1011F000F55069EF09F083BC00EF09F002EF09F048
:101200000CEF09F08C840B0EF66E100EF76EF86A78
:101210000800F55069EF09F083BE11EF09F013EFF4
:1012200009F01DEF09F08C840C0EF66E100EF76EAF
:10123000F86A0800F55069EF09F08C848C96060E68
:10124000E82EFED700D083B828EF09F02AEF09F086
:1012500034EF09F08C860D0EF66E100EF76EF86AFC
:101260000800F55069EF09F083BA39EF09F03BEF58
:1012700009F045EF09F08C860E0EF66E100EF76E33
:10128000F86A0800F55069EF09F083BC4AEF09F0ED
:101290004CEF09F056EF09F08C860F0EF66E100E2B
:1012A000F76EF86A0800F55069EF09F083BE5BEF4E
:1012B00009F05DEF09F067EF09F08C86100EF66E0D
:1012C000100EF76EF86A0800F55069EF09F08C8689
:1012D000000E12003BEC08F01A6E1A50D8B473EFEF
:1012E00009F075EF09F0C5EF09F01950D8A47BEFAC
:1012F00009F07DEF09F0C5EF09F0040E1B6083EFE4
:1013000009F085EF09F0A4EF09F02F0E1A648BEFB6
:1013100009F08DEF09F0A4EF09F03A0E1A6093EF8F
:1013200009F095EF09F0A4EF09F01B501E0FD96EDC
:10133000DA6A1AC0DFFF1BC010F0010E4DEC0CF092
:101340002A0E70EC0DF01B2A2A0E1A18D8A4ABEF47
:1013500009F0ADEF09F0C5EF09F01B6A1E0E046E2F
:10136000000E066E000E056E000E086E050E076E6E
:10137000BDEC0CF043EC0DF0000E106E000E4DECC9
:101380000CF0270E116E69EC0CF01AC019F0040E67
:101390001B18D8A4CEEF09F0D0EF09F01AEF0AF02D
:1013A000226A1E0E046E700E056EF8EC0BF00450EF
:1013B0000510D8A4DEEF09F0E0EF09F0EFEF09F037
:1013C00043EC0DF0000E106E000E4DEC0CF0470ECD
:1013D000116E69EC0CF0020E1C6E1AEF0AF043EC71
:1013E0000DF0000E106E000E4DEC0CF0560E116E4E
:1013F00069EC0CF0100E146E390E136E0E0EE82E02
:10140000FED7132EFCD7142EFAD743EC0DF0000EA6
:10141000106E000E4DEC0CF0150E116E69EC0CF018
:10142000000E106E010E4DEC0CF0650E116E69ECA5
:101430000CF01C6A12008D808DB221EF0AF024EFAF
:101440000AF0010E25EF0AF0000EFF0A136E134694
:101450008D501318FD0B13188D6E3BEC08F01A6EAF
:101460001A50D8B436EF0AF038EF0AF067EF0AF0F6
:101470001950D8A43EEF0AF040EF0AF067EF0AF0E7
:10148000040E1B6046EF0AF048EF0AF067EF0AF01F
:101490002F0E1A644EEF0AF050EF0AF067EF0AF0D1
:1014A0003A0E1A6056EF0AF058EF0AF067EF0AF0AA
:1014B0001B501E0FD96EDA6A1AC0DFFF1BC010F076
:1014C000010E4DEC0CF02A0E70EC0DF01B2A1AC028
:1014D00019F0040E1B18D8A470EF0AF072EF0AF08E
:1014E000B3EF0AF0226A1E0E046E700E056EF8EC61
:1014F0000BF004500510D8A480EF0AF082EF0AF038
:101500009BEF0AF08D908D9243EC0DF0000E106E63
:10151000000E4DEC0CF0150E116E69EC0CF0000E87
:10152000106E010E4DEC0CF0650E116E69EC0CF0B6
:101530001C6AB3EF0AF01B6A1E0E046E000E066EE4
:10154000000E056E000E086E050E076EBDEC0CF069
:1015500043EC0DF0000E106E000E4DEC0CF0370E4B
:10156000116E69EC0CF012005DEC0DF0F19EF28E44
:10157000F28C0F013B6B388138EC0BF043EC0DF033
:10158000000E106E000E4DEC0CF0150E116E69EC95
:101590000CF0000E106E010E4DEC0CF0650E116E8D
:1015A00069EC0CF0E4EF0AF0BFEC0BF001EF0BF08C
:1015B0006AEC09F001EF0BF09DEC0DF001EF0BF080
:1015C0001BEC0AF001EF0BF01C50156E166A16505A
:1015D000000AD8B4EEEF0AF001EF0BF01550000A44
:1015E000D8B4D4EF0AF0010AD8B4D8EF0AF0030A4D
:1015F000D8B4DCEF0AF0010AD8B4E0EF0AF001EF4A
:101600000BF01D04D8A407EF0BF009EF0BF02DEF42
:101610000BF01D6A020E1C18D8A411EF0BF013EF8B
:101620000BF02DEF0BF043EC0DF0000E106E000EE2
:101630004DEC0CF0370E116E69EC0CF01B6A1E0EAF
:10164000046E000E066E000E056E000E086E050E8E
:10165000076EBDEC0CF0030E1C6E340E156EF20E10
:10166000E82EFED7152EFCD7E4EF0AF045EF00F088
:10167000820E106EDE0EE82EFED7102EFCD7000E66
:101680000A6E300E2DEC0CF00D0E106EFC0EE82ED6
:10169000FED7102EFCD7000E0A6E300E2DEC0CF08B
:1016A000420EE82EFED700D0000E0A6E300E2DEC52
:1016B0000CF0420EE82EFED700D0000E0A6E200E6F
:1016C0002DEC0CF0420EE82EFED700D0000E0E6E70
:1016D000280E34EC0DF0000E0E6E0C0E34EC0DF0F6
:1016E000000E0E6E010E34EC0DF0060E106E300E74
:1016F000E82EFED7102EFCD700D0000E0E6E060E80
:1017000034EC0DF01200076E9498086A08C004F0DB
:101710000750056E066A042A91EF0BF0D890053643
:101720000636042E8EEF0BF005AE99EF0BF09BEF13
:101730000BF09EEF0BF08B889FEF0BF08B988B8656
:10174000030EE82EFED700008B96030EE82EFED780
:101750000000082A070E0864B0EF0BF0B2EF0BF0A0
:1017600086EF0BF094888B86030EE82EFED70000E0
:1017700082508B96030EE82EFED7000012003BEC41
:1017800008F01A6E1A50D8B4C8EF0BF0CAEF0BF07D
:10179000F5EF0BF01950D8A4D0EF0BF0D2EF0BF00F
:1017A000F5EF0BF0410E1A18D8A4D9EF0BF0DBEFD0
:1017B0000BF0F5EF0BF043EC0DF0000E106E000E89
:1017C0004DEC0CF0270E116E69EC0CF01B6A1E0E2E
:1017D000046E000E066E000E056E000E086E050EFD
:1017E000076EBDEC0CF0010E1C6E1AC019F0120051
:1017F000FCEF0BF0042A052A0450D96EDA6ADF5098
:10180000066E05C0F6FF100EF76EF86A0800F55078
:101810000618D8A40EEF0CF010EF0CF01BEF0CF034
:101820000450D96EDA6ADF50D8A419EF0CF01BEF20
:101830000CF0FAEF0BF00450D96EDA6ADF50066E46
:1018400005C0F6FF100EF76EF86A0800F550065C4A
:10185000046E056AD8A0050612000C6E0A50D8A4C2
:1018600034EF0CF038EF0CF00B6A0B2A39EF0CF068
:101870000B6A0C50F00B0B1029100D6E0D50040963
:1018800051EC0DF000D000D00D50FB0B51EC0DF0E1
:10189000210EE82EFED700001200126E030E126415
:1018A00054EF0CF056EF0CF058EF0CF0030E126EE4
:1018B000000E0E6E1250110F116E11C0F6FF100EB9
:1018C000F76EF86A0800F5501024800934EC0DF02A
:1018D000120075EF0CF011C0F6FF100EF76EF86AEB
:1018E0000800F55070EC0DF0112A11C0F6FF100E33
:1018F000F76EF86A0800F5500009D8A482EF0CF0E2
:1019000084EF0CF06BEF0CF012008D6A8C6A896A20
:101910008A6A8B6A040E966EBF0E926E9368E70E0B
:10192000946EF00E956E0F013B6BE40E3A6F300E25
:10193000396F040E3C6F2F0E386FF70E616EF19EFB
:101940001200F292F19C000E046E000E056E87EC00
:101950000DF0F288F090F19A000E046E000E056E04
:1019600082EC0DF0F086F092F1983C0E046E1B0EA6
:10197000056E7DEC0DF0F088120004C009F0C7EF91
:101980000CF00950D96EDA6A05C0DFFF092A070694
:10199000D8A00806072806E10828D8A4D2EF0CF042
:1019A000D4EF0CF0C1EF0CF0120023502410D8B487
:1019B000DCEF0CF0DEEF0CF0EAEF0CF002D8EAEF0F
:1019C0000CF00500FA6E2350FD6E2450FE6EFF6A87
:1019D000FA50120012003E0EF66E1B0EF76E000E4D
:1019E000F86E0900F5CF29F000EE17F00C0EEE6A44
:1019F000E806FDE12A902A920001B4EF0AF09498DB
:101A00008B968B98030EE82EFED700008B86030E74
:101A1000E82EFED700008B88030EE82EFED70000CC
:101A2000120094988B888B86030EE82EFED7000058
:101A30008B98030EE82EFED700008B96030EE82E3F
:101A4000FED7000012008DB028EF0DF02BEF0DF047
:101A5000010E2CEF0DF0000EFF0A016E8D500118E3
:101A6000FE0B01188D6E12000F6E0EC00AF00F50A3
:101A7000F00B2DEC0CF00EC00AF00F38F00BF00B51
:101A80002DEC0CF01200000E0E6E010E34EC0DF079
:101A9000060E106E300EE82EFED7102EFCD700D0AA
:101AA0001200096E11EC0DF04E0E83EC0BF0095094
:101AB00083EC0BF0FFEC0CF012009BEC0DF085ECCE
:101AC0000CF077EC0DF0A1EC0CF068EC0DF01200CE
:101AD000C16A820EC06EC36AC46A010EC26E120071
:101AE000106E010E0E6E105034EC0DF01200600EF0
:101AF000D36E040ED26E9B6A120004C023F005C0A0
:101B000024F0120004C025F005C026F0120004C025
:101B100027F005C028F01200F092D5EC0CF012006E
:101B2000F09023EC0DF01200F29298EC0DF0120000
:0F1B3000010E1D6E1200D09E120012001200084E
:020000040030CA
:0E000000FF291E3CFF3F81FF0FC00FE00F40A5
:00000001FF
