:0400000075EF00F0A8
:100008005C82F2A80AEF00F00CEF00F01EEF00F09F
:10001800F2A211EF00F013EF00F01EEF00F04F50C6
:10002800D8A419EF00F01BEF00F01DEF00F0010E4F
:100038004F6EF292F0A623EF00F025EF00F037EFB5
:1000480000F0F0A02AEF00F02CEF00F037EF00F0FE
:100058004F50D8A432EF00F034EF00F036EF00F044
:10006800020E4F6EF090F2A63CEF00F03EEF00F06B
:1000780073EF00F0F2A043EF00F045EF00F073EFEC
:1000880000F04F50D8A44BEF00F04DEF00F071EFA7
:1000980000F08AB852EF00F054EF00F056EF00F08D
:1000A800030E4F6E8ABA5BEF00F05DEF00F05FEF72
:1000B80000F0040E4F6E8ABC64EF00F066EF00F0AB
:1000C80068EF00F0050E4F6E8ABE6DEF00F06FEF1F
:1000D80000F071EF00F0060E4F6E8150F2905C92C6
:0600E80011006EEF10F0A4
:10100000003132334134353642373839432A3023C0
:10101000440040145453697374656D612044455312
:1010200041524D41444F00212120494E54525553C5
:10103000494F4E20212100496E74726F64757A63A6
:10104000612050494E3A005A4F4E41204445534387
:101050004F4E4F432E0053697374656D61204152AA
:101060004D41444F0050494E20496E636F72726586
:1010700063746F0054656D703A202564204320200E
:101080002000502E205052494E434950414C0050B0
:101090002E20545241534552410050726573696F7E
:1010A0006E6520410056454E54414E412031005658
:1010B000454E54414E4120320056454E54414E411A
:1010C00020330056454E54414E41203400313233D6
:0310D000340000E9
:1010D4008C808C828C848C868C90060EE82EFED7B5
:1010E40000D083B878EF08F07AEF08F085EF08F0C5
:1010F4008C80010EF66E100EF76E000EF86E08006E
:10110400F55098EF09F083BA8AEF08F08CEF08F0F5
:1011140096EF08F08C80020EF66E100EF76EF86AE9
:101124000800F55098EF09F083BC9BEF08F09DEFA1
:1011340008F0A7EF08F08C80030EF66E100EF76E21
:10114400F86A0800F55098EF09F083BEACEF08F098
:10115400AEEF08F0B8EF08F08C80040EF66E100EB7
:10116400F76EF86A0800F55098EF09F08C808C92BD
:10117400060EE82EFED700D083B8C3EF08F0C5EF03
:1011840008F0CFEF08F08C82050EF66E100EF76EA5
:10119400F86A0800F55098EF09F083BAD4EF08F024
:1011A400D6EF08F0E0EF08F08C82060EF66E100E13
:1011B400F76EF86A0800F55098EF09F083BCE5EF84
:1011C40008F0E7EF08F0F1EF08F08C82070EF66EF6
:1011D400100EF76EF86A0800F55098EF09F083BE18
:1011E400F6EF08F0F8EF08F002EF09F08C82080E31
:1011F400F66E100EF76EF86A0800F55098EF09F0D5
:101204008C828C94060EE82EFED700D083B80DEFA6
:1012140009F00FEF09F019EF09F08C84090EF66E4E
:10122400100EF76EF86A0800F55098EF09F083BACB
:101234001EEF09F020EF09F02AEF09F08C840A0E62
:10124400F66E100EF76EF86A0800F55098EF09F084
:1012540083BC2FEF09F031EF09F03BEF09F08C84E8
:101264000B0EF66E100EF76EF86A0800F55098EF44
:1012740009F083BE40EF09F042EF09F04CEF09F0AA
:101284008C840C0EF66E100EF76EF86A0800F5509A
:1012940098EF09F08C848C96060EE82EFED700D0C9
:1012A40083B857EF09F059EF09F063EF09F08C8622
:1012B4000D0EF66E100EF76EF86A0800F55098EFF2
:1012C40009F083BA68EF09F06AEF09F074EF09F0E6
:1012D4008C860E0EF66E100EF76EF86A0800F55046
:1012E40098EF09F083BC79EF09F07BEF09F085EF03
:1012F40009F08C860F0EF66E100EF76EF86A080071
:10130400F55098EF09F083BE8AEF09F08CEF09F0ED
:1013140096EF09F08C86100EF66E100EF76EF86AD2
:101324000800F55098EF09F08C86000E12000C505E
:10133400D96EDA6ADFCFF6FF100EF76EF86A08008E
:10134400F550250AD8A4A9EF09F0ABEF09F066EF30
:101354000AF00C50D96EDA6ADF2A000E456E000ED0
:10136400446E44C04AF0466847680C50D96EDA6A45
:10137400DF50106E10C0F6FF100EF76EF86A08000A
:10138400F550640AD8B4C9EF09F0CBEF09F0DAEFED
:1013940009F010C0F6FF100EF76EF86A0800F55059
:1013A400690AD8A4D8EF09F0DAEF09F060EF0AF07F
:1013B4000D50D96EDA6A020EDF26DF5CD96EDA6A66
:1013C400DECF11F0DECF12F00C50D96EDA6A10289D
:1013D400DF6E200E156E12BEF2EF09F0F5EF09F084
:1013E400010EF6EF09F0000E0F6E15061550600F92
:1013F400D96EDA6A11C001F012C002F0000E046E58
:101404000A0E036ECEEC0DF001C007F002C008F026
:10141400A2EC10F00750300FDF6E11C001F012C0C3
:1014240002F0000E046E0A0E036E6DEC0DF001C0A6
:1014340011F002C012F011501210D8B424EF0AF0C7
:1014440026EF0AF02EEF0AF01550D8A42CEF0AF07C
:101454002EEF0AF0F7EF09F01550D8B434EF0AF084
:1014640036EF0AF055EF0AF00F50D8B43CEF0AF00B
:101474003EEF0AF055EF0AF015061550600FD96ECD
:10148400DA6A2D0EDF6E55EF0AF01550600FD96E33
:10149400DA6ADF500E6E0E50016E026A0BC003F062
:1014A40025EC0EF0152A200E1518D8A45CEF0AF0CE
:1014B4005EEF0AF047EF0AF078EF0AF00C50D96EAD
:1014C400DA6ADF2A78EF0AF00C50D96EDA6ADFCFD5
:1014D400F6FF100EF76EF86A0800F550016E026A06
:1014E4000BC003F025EC0EF060EF0AF012006AEC7A
:1014F40008F04C6E4C50D8B482EF0AF084EF0AF036
:10150400D8EF0AF04B50D8A48AEF0AF08CEF0AF017
:10151400D8EF0AF0040E4D6092EF0AF094EF0AF04F
:10152400B3EF0AF02F0E4C649AEF0AF09CEF0AF026
:10153400B3EF0AF03A0E4C60A2EF0AF0A4EF0AF0FF
:10154400B3EF0AF04D50500FD96EDA6A4CC0DFFF8A
:101554004DC00DF0010E36EC10F02A0E34EC11F0F3
:101564004D2A2A0E4C18D8A4BAEF0AF0BCEF0AF0A0
:10157400D8EF0AF04D6A500E016E000E036E000E95
:10158400026E000E056E050E046EBCEC10F007EC46
:1015940011F0000E0D6E000E36EC10F0370E0E6ECC
:1015A4000E50D8A4100E0F6EA8EC0FF04CC04BF0E8
:1015B400040E4D18D8A4E1EF0AF0E3EF0AF04AEF65
:1015C4000BF0546A500E016ECD0E026E73EC0FF0E8
:1015D40001500210D8A4F1EF0AF0F3EF0AF013EF70
:1015E4000BF007EC11F0000E0D6E000E36EC10F04F
:1015F400560E0E6E0E50D8A4100E0F6EA8EC0FF0FF
:101604004D6A500E016E000E036E000E026E000E47
:10161400056E050E046EBCEC10F0020E4E6E4AEF21
:101624000BF007EC11F0000E0D6E000E36EC10F00E
:10163400650E0E6E0E50D8A4100E0F6EA8EC0FF0AF
:10164400100E116E390E106E0E0EE82EFED7102EEF
:10165400FCD7112EFAD707EC11F0000E0D6E000E18
:1016640036EC10F0150E0E6E0E50D8A4100E0F6E40
:10167400A8EC0FF0000E0D6E010E36EC10F09A0E71
:101684000E6E0E50D8A4100E0F6EA8EC0FF04E6A1A
:1016940012008D808DB251EF0BF054EF0BF0010E60
:1016A40055EF0BF0000EFF0A106E10468D50101807
:1016B400FD0B10188D6E6AEC08F04C6E4C50D8B4CB
:1016C40066EF0BF068EF0BF097EF0BF04B50D8A4DC
:1016D4006EEF0BF070EF0BF097EF0BF0040E4D6014
:1016E40076EF0BF078EF0BF097EF0BF02F0E4C64C6
:1016F4007EEF0BF080EF0BF097EF0BF03A0E4C609F
:1017040086EF0BF088EF0BF097EF0BF04D50500F76
:10171400D96EDA6A4CC0DFFF4DC00DF0010E36EC15
:1017240010F02A0E34EC11F04D2A4CC04BF0040E8C
:101734004D18D8A4A0EF0BF0A2EF0BF0EFEF0BF0D5
:10174400546A500E016ECD0E026E73EC0FF0015010
:101754000210D8A4B0EF0BF0B2EF0BF0D3EF0BF004
:101764008D908D9207EC11F0000E0D6E000E36EC8C
:1017740010F0150E0E6E0E50D8A4100E0F6EA8ECBD
:101784000FF0000E0D6E010E36EC10F09A0E0E6E78
:101794000E50D8A4100E0F6EA8EC0FF04E6AEFEFA7
:1017A4000BF04D6A500E016E000E036E000E026EB9
:1017B400000E056E050E046EBCEC10F007EC11F083
:1017C400000E0D6E000E36EC10F0270E0E6E0E504D
:1017D400D8A4100E0F6EA8EC0FF0120021EC11F03B
:1017E400F19E6168F19EF28EF28C7AEC0EF007ECB9
:1017F40011F0000E0D6E000E36EC10F0150E0E6E8C
:101804000E50D8A4100E0F6EA8EC0FF0000E0D6E43
:10181400010E36EC10F09A0E0E6E0E50D8A4100E77
:101824000F6EA8EC0FF027EF0CF0F7EC0CF044EF80
:101834000CF079EC0AF044EF0CF066EC11F044EF94
:101844000CF04BEC0BF044EF0CF04E50426E436A3C
:101854004350000AD8B431EF0CF044EF0CF042507E
:10186400000AD8B417EF0CF0010AD8B41BEF0CF03F
:10187400030AD8B41FEF0CF0010AD8B423EF0CF01C
:1018840044EF0CF04F50D8B44AEF0CF04CEF0CF08E
:1018940074EF0CF0020E4E18D8A453EF0CF055EF71
:1018A4000CF068EF0CF04D6A500E016E000E036EE2
:1018B400000E026E000E056E050E046EBCEC10F0F8
:1018C4007FEC0CF0030E4E6E74EF0CF0030E4E180A
:1018D400D8A46FEF0CF071EF0CF073EF0CF074EF11
:1018E4000CF04F6A340E426EF20EE82EFED7422EF2
:1018F400FCD727EF0CF075EF00F007EC11F0000EA9
:101904000D6E000E36EC10F0270E0E6E0E50D8A49D
:10191400100E0F6EA8EC0FF0000E0D6E010E36ECDB
:1019240010F0DBEF0CF0820E0E6E0E50D8A4100EE9
:101934000F6EA8EC0FF0F6EF0CF08F0E0E6E0E503B
:10194400D8A4100E0F6EA8EC0FF0F6EF0CF0A50E55
:101954000E6E0E50D8A4100E0F6EA8EC0FF0F6EF1A
:101964000CF0AF0E0E6E0E50D8A4100E0F6EA8EC35
:101974000FF0F6EF0CF0B90E0E6E0E50D8A4100E48
:101984000F6EA8EC0FF0F6EF0CF0C30E0E6E0E50B7
:10199400D8A4100E0F6EA8EC0FF0F6EF0CF0470E63
:1019A4000E6E0E50D8A4100E0F6EA8EC0FF0F6EFCA
:1019B4000CF04F50010AD8B495EF0CF0030AD8B4D8
:1019C4009FEF0CF0010AD8B4A9EF0CF0070AD8B4C1
:1019D400B3EF0CF0010AD8B4BDEF0CF0030AD8B48D
:1019E400C7EF0CF0D1EF0CF01200000E19EC10F060
:1019F40001C03EF002C03FF0F40E2A6E010E2B6EC1
:101A04002A503E02F3CF2CF0F4CF2DF03F02F350D6
:101A14002D262B503E02F3502D262CC001F02DC054
:101A240002F0030E046E036801EC0FF001C040F0F5
:101A340002C041F02E0E1A6E740E1B6E40C01CF0D4
:101A440041C01DF088EC10F0000E0D6E010E36EC56
:101A540010F02E0E0E6E0F6AA8EC0FF06AEC08F070
:101A64004C6E4C50D8B439EF0DF03BEF0DF06AEFEB
:101A74000DF04B50D8A441EF0DF043EF0DF06AEF99
:101A84000DF0410E4C18D8A44AEF0DF04CEF0DF0B8
:101A94006AEF0DF007EC11F0000E0D6E000E36EC3F
:101AA40010F0370E0E6E0E50D8A4100E0F6EA8EC68
:101AB4000FF04D6A500E016E000E036E000E026EA2
:101AC400000E056E050E046EBCEC10F0010E4E6E99
:101AD4004CC04BF01200066A04BE75EF0DF073EFB4
:101AE4000DF07BEF0DF0036C041ED8B0042A010E38
:101AF400066E02BE82EF0DF080EF0DF088EF0DF060
:101B0400016C021ED8B0022A010E061A000E086EDD
:101B1400000E076E03500410D8B493EF0DF095EF48
:101B24000DF0BDEF0DF0010E056E9DEF0DF0D89098
:101B340003360436052A04AEA2EF0DF0A4EF0DF02F
:101B440099EF0DF0D890073608360350015C045025
:101B54000258D8A0B0EF0DF0B2EF0DF0B7EF0DF0D2
:101B64000350015E0450025A0780D89004320332B5
:101B7400052EA4EF0DF00650D8B4C3EF0DF0C5EF59
:101B84000DF0C9EF0DF0076C081ED8B0082A07C085
:101B940001F008C002F01200066A02BED6EF0DF092
:101BA400D4EF0DF0DCEF0DF0016C021ED8B0022A68
:101BB400010E066E04BEE3EF0DF0E1EF0DF0E7EF6A
:101BC4000DF0036C041ED8B0042A03500410D8B4DA
:101BD400EEEF0DF0F0EF0DF014EF0EF0010E056EC8
:101BE400F8EF0DF0D89003360436052A04AEFDEF65
:101BF4000DF0FFEF0DF0F4EF0DF00350015C045015
:101C04000258D8A008EF0EF00AEF0EF00EEF0EF017
:101C14000350015E0450025AD89004320332052E58
:101C2400FFEF0DF00650D8B41AEF0EF01CEF0EF0D3
:101C340020EF0EF0016C021ED8B0022A01C001F0A0
:101C440002C002F012000350D8B42BEF0EF02DEFB7
:101C54000EF035EF0EF00350D8A433EF0EF035EF4D
:101C64000EF03AEF0EF0015067EC11F079EF0EF040
:101C74000350D96EDA6A090ED926DE50DE10D8B4C4
:101C840046EF0EF048EF0EF061EF0EF00350D96E00
:101C9400DA6A090ED9260350E16EE26A020EE126E1
:101CA400DE50E65CE650800A086EDE50800A085872
:101CB400D8B05FEF0EF061EF0EF079EF0EF0035045
:101CC400D96EDA6A020ED926DF50046E0350D96E3B
:101CD400DA6ADF500424D96EDA6A01C0DFFF0350E8
:101CE400D96EDA6A020ED926DE2A000EDD2212002F
:101CF400820E0D6EDE0EE82EFED70D2EFCD7000EE2
:101D0400076E300EF9EC0FF00D0E0D6EFC0EE82E82
:101D1400FED70D2EFCD7000E076E300EF9EC0FF037
:101D2400420EE82EFED700D0000E076E300EF9ECFE
:101D34000FF0420EE82EFED700D0000E076E200EE4
:101D4400F9EC0FF0420EE82EFED700D0000E0B6E19
:101D5400280EF8EC10F0000E0B6E0C0EF8EC10F0E0
:101D6400000E0B6E010EF8EC10F0060E0D6E300E28
:101D7400E82EFED70D2EFCD700D0000E0B6E060EFB
:101D8400F8EC10F01200046E9498056A05C001F096
:101D94000450026E036A012AD3EF0EF0D890023683
:101DA4000336012ED0EF0EF002AEDBEF0EF0DDEFC6
:101DB4000EF0E0EF0EF08B88E1EF0EF08B988B863F
:101DC400030EE82EFED700008B96030EE82EFED7F6
:101DD4000000052A070E0564F2EF0EF0F4EF0EF092
:101DE400C8EF0EF094888B86030EE82EFED7000011
:101DF40082508B96030EE82EFED700001200000ED0
:101E0400066E000E056E03500410D8B40CEF0FF0EC
:101E14000EEF0FF036EF0FF0010E076E16EF0FF016
:101E2400D89003360436072A04AE1BEF0FF01DEFDB
:101E34000FF012EF0FF0D890053606360350015C10
:101E440004500258D8A029EF0FF02BEF0FF030EF19
:101E54000FF00350015E0450025A0580D8900432FA
:101E64000332072E1DEF0FF005C001F006C002F08B
:101E740012008D6A8C6A896A8A6A8B6A040E966E6D
:101E8400BF0E926E9368E70E946EF00E956E0F017E
:101E94003B6BE40E3A6F396B040E3C6F2F0E386FB8
:101EA400F70E616EF19E6288628A628C628E000E09
:101EB400016E000E026E50EC11F0000E016E000E69
:101EC400026E4BEC11F0000E016E000E026E46EC39
:101ED40011F0000E016E000E026E41EC11F0F2865C
:101EE400120077EF0FF0012A022A0150D96EDA6A44
:101EF400DF50036E02C0F6FF100EF76EF86A08009A
:101F0400F5500318D8A489EF0FF08BEF0FF096EF7C
:101F14000FF00150D96EDA6ADF50D8A494EF0FF0B5
:101F240096EF0FF075EF0FF00150D96EDA6ADF50BB
:101F3400036E02C0F6FF100EF76EF86A0800F55043
:101F4400035C016E026AD8A002061200BFEF0FF014
:101F54000EC0F6FF0FC0F7FF000EF86E0F0EF76409
:101F640003D00800F55005D0F6CFE9FFF7CFEAFF1C
:101F7400EF5034EC11F00E4A0F2A0EC0F6FF0FC0DA
:101F8400F7FF000EF86E0F0EF76403D00800F5504B
:101F940005D0F6CFE9FFF7CFEAFFEF500009D8A448
:101FA400D6EF0FF0D8EF0FF0AAEF0FF0120017C022
:101FB40019F0E5EF0FF016C00BF0190E0C6E18C0F7
:101FC4000DF099EC09F019C0F6FF100EF76EF86ADF
:101FD4000800F5500009D8A4F2EF0FF0F4EF0FF069
:101FE400DDEF0FF0000E176E000E166E1200096E74
:101FF4000750D8A400EF10F004EF10F0086A082A84
:1020040005EF10F0086A0950F00B08105B100A6E17
:102014000A50040915EC11F000D000D00A50FB0B53
:1020240015EC11F0210EE82EFED700001200056E0B
:1020340005C003F003460346C2500318830B03187C
:10204400C26EC280C282C2B22AEF10F02CEF10F02E
:1020540025EF10F0C450046E036AC3500324016ECC
:10206400000E0420026E12000F6E030E0F643DEF8B
:1020740010F03FEF10F041EF10F0030E0F6E000E62
:102084000B6E0F50110F0E6E0EC0F6FF100EF76E92
:10209400F86A0800F5500D248009F8EC10F01200DD
:1020A400F292F19C000E016E000E026E5FEC11F0D4
:1020B400F288F090F19A000E016E000E026E5AEC56
:1020C40011F0F086F092F198000E016E000E026E8F
:1020D40055EC11F0F0881200D00EF66E220EF76E59
:1020E400000EF86E0900F5CF5BF000EE60F0200EF4
:1020F400EE6AE806FDE100EE44F0110EEE6AE80631
:10210400FDE15C905C920001F0EF0BF01C0E1E6E82
:102114001AC01FF0000E226E000E216E000E296EF2
:10212400000E286E1F0E166E1BC017F01E0E186EC2
:10213400D9EC0FF01A502124D96EDA6ADF6A120042
:1021440008BEA7EF10F0A9EF10F0AFEF10F007C032
:1021540007F008C008F0BBEF10F007C009F008C092
:102164000AF0091E0A1E094A0A2A09C007F00AC011
:1021740008F0120001C006F0C6EF10F00650D96E48
:10218400DA6A02C0DFFF062A0406D8A0050604287E
:1021940006E10528D8A4D1EF10F0D3EF10F0C0EF7A
:1021A40010F0120094988B968B98030EE82EFED7AD
:1021B40000008B86030EE82EFED700008B88030EEA
:1021C400E82EFED70000120094988B888B86030EAD
:1021D400E82EFED700008B98030EE82EFED70000F1
:1021E4008B96030EE82EFED7000012000C6E0BC077
:1021F40007F00C50F00BF9EC0FF00BC007F00C38A3
:10220400F00BF00BF9EC0FF01200000E0B6E010E48
:10221400F8EC10F0060E0D6E300EE82EFED70D2EE3
:10222400FCD700D01200066EE6EC10F04E0EC5ECA2
:102234000EF00650C5EC0EF0D4EC10F0120064EC75
:1022440011F03BEC0FF03BEC11F052EC10F02CECE5
:1022540011F01200C16A820EC06EC36AC46A010E14
:10226400C26E12000D6E010E0B6E0D50F8EC10F0E4
:102274001200600ED36E040ED26E9B6A120001C06F
:1022840086F002C087F0120001C055F002C056F07B
:10229400120001C057F002C058F0120001C059F0FA
:1022A40002C05AF0120001C080F002C081F0120096
:1022B40001C082F002C083F0120001C084F002C0A9
:0D22C40085F01200D09E12001200120008DA
:020000040030CA
:0E000000FF291E3CFF3F81FF0FC00FE00F40A5
:00000001FF
